{
  "contractName": "Claimer",
  "abi": [
    {
      "anonymous": false,
      "inputs": [
        {
          "indexed": true,
          "internalType": "address",
          "name": "previousOwner",
          "type": "address"
        },
        {
          "indexed": true,
          "internalType": "address",
          "name": "newOwner",
          "type": "address"
        }
      ],
      "name": "OwnershipTransferred",
      "type": "event"
    },
    {
      "inputs": [
        {
          "internalType": "address",
          "name": "",
          "type": "address"
        },
        {
          "internalType": "uint256",
          "name": "",
          "type": "uint256"
        }
      ],
      "name": "balancesToClaim",
      "outputs": [
        {
          "internalType": "uint256",
          "name": "",
          "type": "uint256"
        }
      ],
      "stateMutability": "view",
      "type": "function",
      "constant": true
    },
    {
      "inputs": [],
      "name": "owner",
      "outputs": [
        {
          "internalType": "address",
          "name": "",
          "type": "address"
        }
      ],
      "stateMutability": "view",
      "type": "function",
      "constant": true
    },
    {
      "inputs": [
        {
          "internalType": "uint256",
          "name": "",
          "type": "uint256"
        }
      ],
      "name": "physicalDPNs",
      "outputs": [
        {
          "internalType": "address",
          "name": "",
          "type": "address"
        }
      ],
      "stateMutability": "view",
      "type": "function",
      "constant": true
    },
    {
      "inputs": [],
      "name": "renounceOwnership",
      "outputs": [],
      "stateMutability": "nonpayable",
      "type": "function"
    },
    {
      "inputs": [
        {
          "internalType": "bytes4",
          "name": "interfaceId",
          "type": "bytes4"
        }
      ],
      "name": "supportsInterface",
      "outputs": [
        {
          "internalType": "bool",
          "name": "",
          "type": "bool"
        }
      ],
      "stateMutability": "view",
      "type": "function",
      "constant": true
    },
    {
      "inputs": [
        {
          "internalType": "address",
          "name": "newOwner",
          "type": "address"
        }
      ],
      "name": "transferOwnership",
      "outputs": [],
      "stateMutability": "nonpayable",
      "type": "function"
    },
    {
      "inputs": [
        {
          "internalType": "uint256",
          "name": "id",
          "type": "uint256"
        },
        {
          "internalType": "address",
          "name": "claimedNFT",
          "type": "address"
        }
      ],
      "name": "initialize",
      "outputs": [],
      "stateMutability": "nonpayable",
      "type": "function"
    },
    {
      "inputs": [
        {
          "internalType": "address",
          "name": "operator",
          "type": "address"
        },
        {
          "internalType": "address",
          "name": "from",
          "type": "address"
        },
        {
          "internalType": "uint256",
          "name": "id",
          "type": "uint256"
        },
        {
          "internalType": "uint256",
          "name": "value",
          "type": "uint256"
        },
        {
          "internalType": "bytes",
          "name": "data",
          "type": "bytes"
        }
      ],
      "name": "onERC1155Received",
      "outputs": [
        {
          "internalType": "bytes4",
          "name": "",
          "type": "bytes4"
        }
      ],
      "stateMutability": "nonpayable",
      "type": "function"
    },
    {
      "inputs": [
        {
          "internalType": "address",
          "name": "operator",
          "type": "address"
        },
        {
          "internalType": "address",
          "name": "from",
          "type": "address"
        },
        {
          "internalType": "uint256[]",
          "name": "ids",
          "type": "uint256[]"
        },
        {
          "internalType": "uint256[]",
          "name": "values",
          "type": "uint256[]"
        },
        {
          "internalType": "bytes",
          "name": "data",
          "type": "bytes"
        }
      ],
      "name": "onERC1155BatchReceived",
      "outputs": [
        {
          "internalType": "bytes4",
          "name": "",
          "type": "bytes4"
        }
      ],
      "stateMutability": "nonpayable",
      "type": "function"
    },
    {
      "inputs": [
        {
          "internalType": "uint256",
          "name": "id",
          "type": "uint256"
        },
        {
          "internalType": "uint256",
          "name": "amount",
          "type": "uint256"
        }
      ],
      "name": "claim",
      "outputs": [],
      "stateMutability": "nonpayable",
      "type": "function"
    }
  ],
  "bytecode": "0x608060405234801561001057600080fd5b5061001a3361001f565b61006f565b600080546001600160a01b038381166001600160a01b0319831681178455604051919092169283917f8be0079c531659141344cd1fd0a4f28419497f9722a3daafe3b4186f6b6457e09190a35050565b6109138061007e6000396000f3fe608060405234801561001057600080fd5b506004361061009e5760003560e01c8063bc197c8111610066578063bc197c8114610160578063c34902631461019b578063da35a26f146101ae578063f23a6e61146101c1578063f2fde38b146101d457600080fd5b806301ffc9a7146100a35780636ebeb887146100cb578063715018a61461010c5780638da5cb5b14610116578063bad390fb14610127575b600080fd5b6100b66100b13660046105a9565b6101e7565b60405190151581526020015b60405180910390f35b6100f46100d93660046105da565b6002602052600090815260409020546001600160a01b031681565b6040516001600160a01b0390911681526020016100c2565b61011461021e565b005b6000546001600160a01b03166100f4565b61015261013536600461060f565b600160209081526000928352604080842090915290825290205481565b6040519081526020016100c2565b61018261016e3660046106c7565b63bc197c8160e01b98975050505050505050565b6040516001600160e01b031990911681526020016100c2565b6101146101a9366004610782565b61025d565b6101146101bc3660046107a4565b61038e565b6101826101cf3660046107d0565b6103e6565b6101146101e2366004610848565b61043f565b60006001600160e01b03198216630271189760e51b148061021857506301ffc9a760e01b6001600160e01b03198316145b92915050565b6000546001600160a01b031633146102515760405162461bcd60e51b815260040161024890610863565b60405180910390fd5b61025b60006104da565b565b3360008181526001602090815260408083208684529091529020548211156102d65760405162461bcd60e51b815260206004820152602660248201527f436c61696d65723a20696e737566666963656e742062616c616e636520666f7260448201526520636c61696d60d01b6064820152608401610248565b6000838152600260205260409020546001600160a01b03166103465760405162461bcd60e51b8152602060048201526024808201527f436c61696d6564204e46542061646472657373206861736e2774206265656e206044820152637365742160e01b6064820152608401610248565b61035183338461052a565b6001600160a01b0381166000908152600160209081526040808320868452909152812080548492906103849084906108ae565b9091555050505050565b6000546001600160a01b031633146103b85760405162461bcd60e51b815260040161024890610863565b60009182526002602052604090912080546001600160a01b0319166001600160a01b03909216919091179055565b6001600160a01b038516600090815260016020908152604080832087845290915281208054859190839061041b9084906108c5565b9091555061042c905085878661052a565b5063f23a6e6160e01b9695505050505050565b6000546001600160a01b031633146104695760405162461bcd60e51b815260040161024890610863565b6001600160a01b0381166104ce5760405162461bcd60e51b815260206004820152602660248201527f4f776e61626c653a206e6577206f776e657220697320746865207a65726f206160448201526564647265737360d01b6064820152608401610248565b6104d7816104da565b50565b600080546001600160a01b038381166001600160a01b0319831681178455604051919092169283917f8be0079c531659141344cd1fd0a4f28419497f9722a3daafe3b4186f6b6457e09190a35050565b60008381526002602052604090819020549051630ab714fb60e11b81526001600160a01b03848116600483015260248201869052604482018490529091169063156e29f690606401600060405180830381600087803b15801561058c57600080fd5b505af11580156105a0573d6000803e3d6000fd5b50505050505050565b6000602082840312156105bb57600080fd5b81356001600160e01b0319811681146105d357600080fd5b9392505050565b6000602082840312156105ec57600080fd5b5035919050565b80356001600160a01b038116811461060a57600080fd5b919050565b6000806040838503121561062257600080fd5b61062b836105f3565b946020939093013593505050565b60008083601f84011261064b57600080fd5b50813567ffffffffffffffff81111561066357600080fd5b6020830191508360208260051b850101111561067e57600080fd5b9250929050565b60008083601f84011261069757600080fd5b50813567ffffffffffffffff8111156106af57600080fd5b60208301915083602082850101111561067e57600080fd5b60008060008060008060008060a0898b0312156106e357600080fd5b6106ec896105f3565b97506106fa60208a016105f3565b9650604089013567ffffffffffffffff8082111561071757600080fd5b6107238c838d01610639565b909850965060608b013591508082111561073c57600080fd5b6107488c838d01610639565b909650945060808b013591508082111561076157600080fd5b5061076e8b828c01610685565b999c989b5096995094979396929594505050565b6000806040838503121561079557600080fd5b50508035926020909101359150565b600080604083850312156107b757600080fd5b823591506107c7602084016105f3565b90509250929050565b60008060008060008060a087890312156107e957600080fd5b6107f2876105f3565b9550610800602088016105f3565b94506040870135935060608701359250608087013567ffffffffffffffff81111561082a57600080fd5b61083689828a01610685565b979a9699509497509295939492505050565b60006020828403121561085a57600080fd5b6105d3826105f3565b6020808252818101527f4f776e61626c653a2063616c6c6572206973206e6f7420746865206f776e6572604082015260600190565b634e487b7160e01b600052601160045260246000fd5b6000828210156108c0576108c0610898565b500390565b600082198211156108d8576108d8610898565b50019056fea26469706673582212203b21048b7101618c46099b9a050f951c85baa541c4518acc74622232da72cd3964736f6c634300080e0033",
  "immutableReferences": {},
  "source": "// SPDX-License-Identifier: MIT\r\npragma solidity ^0.8.7;\r\n\r\nimport \"@openzeppelin/contracts/access/Ownable.sol\";\r\nimport \"@openzeppelin/contracts/utils/math/SafeMath.sol\";\r\nimport \"@openzeppelin/contracts/token/ERC1155/IERC1155.sol\";\r\nimport \"@openzeppelin/contracts/token/ERC1155/IERC1155Receiver.sol\";\r\nimport \"@openzeppelin/contracts/token/ERC1155/utils/ERC1155Receiver.sol\";\r\n\r\ninterface IDaopioneerPhys {\r\n    function mint(address to,uint256 id,uint256 amount) external;\r\n}\r\n\r\n/**\r\n * @title Claimer\r\n * Claimer - Contract that claim the physical nft.\r\n */\r\ncontract Claimer is ERC1155Receiver, Ownable {\r\n    using SafeMath for uint256;\r\n\r\n    mapping(address => mapping(uint256 => uint256)) public balancesToClaim;\r\n    mapping(uint256 => address) public physicalDPNs;\r\n\r\n    function initialize(\r\n        uint256 id,\r\n        address claimedNFT\r\n    ) public onlyOwner {\r\n        physicalDPNs[id] = claimedNFT;\r\n    }\r\n\r\n    function onERC1155Received(\r\n        address operator,\r\n        address from,\r\n        uint256 id,\r\n        uint256 value,\r\n        bytes calldata data\r\n    ) external override returns (bytes4)\r\n    {\r\n        balancesToClaim[from][id] += value;\r\n        _claim(id, from, value);\r\n        return IERC1155Receiver(address(this)).onERC1155Received.selector;\r\n    }\r\n\r\n    function onERC1155BatchReceived(\r\n        address operator,\r\n        address from,\r\n        uint256[] calldata ids,\r\n        uint256[] calldata values,\r\n        bytes calldata data\r\n    ) external override returns (bytes4) {\r\n        return IERC1155Receiver(address(this)).onERC1155BatchReceived.selector;\r\n    }\r\n    \r\n    function _claim(uint256 id, address to, uint256 amount) internal {\r\n        IDaopioneerPhys(physicalDPNs[id]).mint(\r\n            to,\r\n            id,\r\n            amount\r\n        );\r\n    }\r\n\r\n    function claim(uint256 id, uint256 amount) public {\r\n        address operator = _msgSender();\r\n\r\n        require(\r\n            balancesToClaim[operator][id] >= amount,\r\n            \"Claimer: insufficent balance for claim\"\r\n        );\r\n\r\n        require(physicalDPNs[id] != address(0), \"Claimed NFT address hasn't been set!\");\r\n\r\n        _claim(id, msg.sender, amount);\r\n        balancesToClaim[operator][id] -= amount;\r\n    }\r\n}\r\n",
  "sourcePath": "D:\\Working\\Freelancing\\7.TFT\\Project\\TFT-blockchain\\blockchain\\contracts\\Claimer.sol",
  "compiler": {
    "name": "solc",
    "version": "0.8.14+commit.80d49f37.Emscripten.clang"
  },
  "schemaVersion": "3.4.4",
  "updatedAt": "2022-06-04T19:44:43.032Z",
  "networkType": "ethereum",
  "devdoc": {
    "kind": "dev",
    "methods": {
      "onERC1155BatchReceived(address,address,uint256[],uint256[],bytes)": {
        "details": "Handles the receipt of a multiple ERC1155 token types. This function is called at the end of a `safeBatchTransferFrom` after the balances have been updated. NOTE: To accept the transfer(s), this must return `bytes4(keccak256(\"onERC1155BatchReceived(address,address,uint256[],uint256[],bytes)\"))` (i.e. 0xbc197c81, or its own function selector).",
        "params": {
          "data": "Additional data with no specified format",
          "from": "The address which previously owned the token",
          "ids": "An array containing ids of each token being transferred (order and length must match values array)",
          "operator": "The address which initiated the batch transfer (i.e. msg.sender)",
          "values": "An array containing amounts of each token being transferred (order and length must match ids array)"
        },
        "returns": {
          "_0": "`bytes4(keccak256(\"onERC1155BatchReceived(address,address,uint256[],uint256[],bytes)\"))` if transfer is allowed"
        }
      },
      "onERC1155Received(address,address,uint256,uint256,bytes)": {
        "details": "Handles the receipt of a single ERC1155 token type. This function is called at the end of a `safeTransferFrom` after the balance has been updated. NOTE: To accept the transfer, this must return `bytes4(keccak256(\"onERC1155Received(address,address,uint256,uint256,bytes)\"))` (i.e. 0xf23a6e61, or its own function selector).",
        "params": {
          "data": "Additional data with no specified format",
          "from": "The address which previously owned the token",
          "id": "The ID of the token being transferred",
          "operator": "The address which initiated the transfer (i.e. msg.sender)",
          "value": "The amount of tokens being transferred"
        },
        "returns": {
          "_0": "`bytes4(keccak256(\"onERC1155Received(address,address,uint256,uint256,bytes)\"))` if transfer is allowed"
        }
      },
      "owner()": {
        "details": "Returns the address of the current owner."
      },
      "renounceOwnership()": {
        "details": "Leaves the contract without owner. It will not be possible to call `onlyOwner` functions anymore. Can only be called by the current owner. NOTE: Renouncing ownership will leave the contract without an owner, thereby removing any functionality that is only available to the owner."
      },
      "supportsInterface(bytes4)": {
        "details": "See {IERC165-supportsInterface}."
      },
      "transferOwnership(address)": {
        "details": "Transfers ownership of the contract to a new account (`newOwner`). Can only be called by the current owner."
      }
    },
    "title": "Claimer Claimer - Contract that claim the physical nft.",
    "version": 1
  },
  "userdoc": {
    "kind": "user",
    "methods": {},
    "version": 1
  }
}