{
  "contractName": "DaopioneerPhys",
  "abi": [
    {
      "inputs": [
        {
          "internalType": "string",
          "name": "_uri",
          "type": "string"
        }
      ],
      "stateMutability": "nonpayable",
      "type": "constructor"
    },
    {
      "anonymous": false,
      "inputs": [
        {
          "indexed": true,
          "internalType": "address",
          "name": "account",
          "type": "address"
        },
        {
          "indexed": true,
          "internalType": "address",
          "name": "operator",
          "type": "address"
        },
        {
          "indexed": false,
          "internalType": "bool",
          "name": "approved",
          "type": "bool"
        }
      ],
      "name": "ApprovalForAll",
      "type": "event"
    },
    {
      "anonymous": false,
      "inputs": [
        {
          "indexed": true,
          "internalType": "address",
          "name": "previousOwner",
          "type": "address"
        },
        {
          "indexed": true,
          "internalType": "address",
          "name": "newOwner",
          "type": "address"
        }
      ],
      "name": "OwnershipTransferred",
      "type": "event"
    },
    {
      "anonymous": false,
      "inputs": [
        {
          "indexed": true,
          "internalType": "address",
          "name": "operator",
          "type": "address"
        },
        {
          "indexed": true,
          "internalType": "address",
          "name": "from",
          "type": "address"
        },
        {
          "indexed": true,
          "internalType": "address",
          "name": "to",
          "type": "address"
        },
        {
          "indexed": false,
          "internalType": "uint256[]",
          "name": "ids",
          "type": "uint256[]"
        },
        {
          "indexed": false,
          "internalType": "uint256[]",
          "name": "values",
          "type": "uint256[]"
        }
      ],
      "name": "TransferBatch",
      "type": "event"
    },
    {
      "anonymous": false,
      "inputs": [
        {
          "indexed": true,
          "internalType": "address",
          "name": "operator",
          "type": "address"
        },
        {
          "indexed": true,
          "internalType": "address",
          "name": "from",
          "type": "address"
        },
        {
          "indexed": true,
          "internalType": "address",
          "name": "to",
          "type": "address"
        },
        {
          "indexed": false,
          "internalType": "uint256",
          "name": "id",
          "type": "uint256"
        },
        {
          "indexed": false,
          "internalType": "uint256",
          "name": "value",
          "type": "uint256"
        }
      ],
      "name": "TransferSingle",
      "type": "event"
    },
    {
      "anonymous": false,
      "inputs": [
        {
          "indexed": false,
          "internalType": "string",
          "name": "value",
          "type": "string"
        },
        {
          "indexed": true,
          "internalType": "uint256",
          "name": "id",
          "type": "uint256"
        }
      ],
      "name": "URI",
      "type": "event"
    },
    {
      "inputs": [
        {
          "internalType": "address",
          "name": "account",
          "type": "address"
        },
        {
          "internalType": "uint256",
          "name": "id",
          "type": "uint256"
        }
      ],
      "name": "balanceOf",
      "outputs": [
        {
          "internalType": "uint256",
          "name": "",
          "type": "uint256"
        }
      ],
      "stateMutability": "view",
      "type": "function"
    },
    {
      "inputs": [
        {
          "internalType": "address[]",
          "name": "accounts",
          "type": "address[]"
        },
        {
          "internalType": "uint256[]",
          "name": "ids",
          "type": "uint256[]"
        }
      ],
      "name": "balanceOfBatch",
      "outputs": [
        {
          "internalType": "uint256[]",
          "name": "",
          "type": "uint256[]"
        }
      ],
      "stateMutability": "view",
      "type": "function"
    },
    {
      "inputs": [
        {
          "internalType": "address",
          "name": "account",
          "type": "address"
        },
        {
          "internalType": "address",
          "name": "operator",
          "type": "address"
        }
      ],
      "name": "isApprovedForAll",
      "outputs": [
        {
          "internalType": "bool",
          "name": "",
          "type": "bool"
        }
      ],
      "stateMutability": "view",
      "type": "function"
    },
    {
      "inputs": [],
      "name": "owner",
      "outputs": [
        {
          "internalType": "address",
          "name": "",
          "type": "address"
        }
      ],
      "stateMutability": "view",
      "type": "function"
    },
    {
      "inputs": [],
      "name": "renounceOwnership",
      "outputs": [],
      "stateMutability": "nonpayable",
      "type": "function"
    },
    {
      "inputs": [
        {
          "internalType": "address",
          "name": "from",
          "type": "address"
        },
        {
          "internalType": "address",
          "name": "to",
          "type": "address"
        },
        {
          "internalType": "uint256[]",
          "name": "ids",
          "type": "uint256[]"
        },
        {
          "internalType": "uint256[]",
          "name": "amounts",
          "type": "uint256[]"
        },
        {
          "internalType": "bytes",
          "name": "data",
          "type": "bytes"
        }
      ],
      "name": "safeBatchTransferFrom",
      "outputs": [],
      "stateMutability": "nonpayable",
      "type": "function"
    },
    {
      "inputs": [
        {
          "internalType": "address",
          "name": "from",
          "type": "address"
        },
        {
          "internalType": "address",
          "name": "to",
          "type": "address"
        },
        {
          "internalType": "uint256",
          "name": "id",
          "type": "uint256"
        },
        {
          "internalType": "uint256",
          "name": "amount",
          "type": "uint256"
        },
        {
          "internalType": "bytes",
          "name": "data",
          "type": "bytes"
        }
      ],
      "name": "safeTransferFrom",
      "outputs": [],
      "stateMutability": "nonpayable",
      "type": "function"
    },
    {
      "inputs": [
        {
          "internalType": "address",
          "name": "operator",
          "type": "address"
        },
        {
          "internalType": "bool",
          "name": "approved",
          "type": "bool"
        }
      ],
      "name": "setApprovalForAll",
      "outputs": [],
      "stateMutability": "nonpayable",
      "type": "function"
    },
    {
      "inputs": [
        {
          "internalType": "bytes4",
          "name": "interfaceId",
          "type": "bytes4"
        }
      ],
      "name": "supportsInterface",
      "outputs": [
        {
          "internalType": "bool",
          "name": "",
          "type": "bool"
        }
      ],
      "stateMutability": "view",
      "type": "function"
    },
    {
      "inputs": [
        {
          "internalType": "address",
          "name": "newOwner",
          "type": "address"
        }
      ],
      "name": "transferOwnership",
      "outputs": [],
      "stateMutability": "nonpayable",
      "type": "function"
    },
    {
      "inputs": [
        {
          "internalType": "uint256",
          "name": "",
          "type": "uint256"
        }
      ],
      "name": "uri",
      "outputs": [
        {
          "internalType": "string",
          "name": "",
          "type": "string"
        }
      ],
      "stateMutability": "view",
      "type": "function"
    },
    {
      "inputs": [
        {
          "internalType": "address",
          "name": "who",
          "type": "address"
        },
        {
          "internalType": "bool",
          "name": "flag",
          "type": "bool"
        }
      ],
      "name": "setMintable",
      "outputs": [],
      "stateMutability": "nonpayable",
      "type": "function"
    },
    {
      "inputs": [
        {
          "internalType": "string",
          "name": "newuri",
          "type": "string"
        }
      ],
      "name": "setURI",
      "outputs": [],
      "stateMutability": "nonpayable",
      "type": "function"
    },
    {
      "inputs": [
        {
          "internalType": "address",
          "name": "to",
          "type": "address"
        },
        {
          "internalType": "uint256",
          "name": "id",
          "type": "uint256"
        },
        {
          "internalType": "uint256",
          "name": "amount",
          "type": "uint256"
        }
      ],
      "name": "mint",
      "outputs": [],
      "stateMutability": "nonpayable",
      "type": "function"
    }
  ],
  "bytecode": "0x60806040523480156200001157600080fd5b5060405162001c2f38038062001c2f833981016040819052620000349162000178565b80620000403362000053565b6200004b81620000a3565b505062000290565b600080546001600160a01b038381166001600160a01b0319831681178455604051919092169283917f8be0079c531659141344cd1fd0a4f28419497f9722a3daafe3b4186f6b6457e09190a35050565b8051620000b8906003906020840190620000bc565b5050565b828054620000ca9062000254565b90600052602060002090601f016020900481019282620000ee576000855562000139565b82601f106200010957805160ff191683800117855562000139565b8280016001018555821562000139579182015b82811115620001395782518255916020019190600101906200011c565b50620001479291506200014b565b5090565b5b808211156200014757600081556001016200014c565b634e487b7160e01b600052604160045260246000fd5b600060208083850312156200018c57600080fd5b82516001600160401b0380821115620001a457600080fd5b818501915085601f830112620001b957600080fd5b815181811115620001ce57620001ce62000162565b604051601f8201601f19908116603f01168101908382118183101715620001f957620001f962000162565b8160405282815288868487010111156200021257600080fd5b600093505b8284101562000236578484018601518185018701529285019262000217565b82841115620002485760008684830101525b98975050505050505050565b600181811c908216806200026957607f821691505b6020821081036200028a57634e487b7160e01b600052602260045260246000fd5b50919050565b61198f80620002a06000396000f3fe608060405234801561001057600080fd5b50600436106100e95760003560e01c8063715018a61161008c578063e985e9c511610066578063e985e9c5146101e8578063f242432a14610224578063f2fde38b14610237578063f7eb06c41461024a57600080fd5b8063715018a6146101b25780638da5cb5b146101ba578063a22cb465146101d557600080fd5b80630e89341c116100c85780630e89341c1461014c578063156e29f61461016c5780632eb2c2d61461017f5780634e1273f41461019257600080fd5b8062fdd58e146100ee57806301ffc9a71461011457806302fe530514610137575b600080fd5b6101016100fc3660046110b9565b61025d565b6040519081526020015b60405180910390f35b6101276101223660046110f9565b6102f6565b604051901515815260200161010b565b61014a6101453660046111be565b610348565b005b61015f61015a36600461120f565b61037e565b60405161010b9190611275565b61014a61017a366004611288565b610412565b61014a61018d366004611370565b6104c2565b6101a56101a036600461141a565b610559565b60405161010b9190611520565b61014a610683565b6000546040516001600160a01b03909116815260200161010b565b61014a6101e3366004611533565b6106b9565b6101276101f636600461156f565b6001600160a01b03918216600090815260026020908152604080832093909416825291909152205460ff1690565b61014a6102323660046115a2565b6106c8565b61014a610245366004611607565b61074f565b61014a610258366004611533565b6107e7565b60006001600160a01b0383166102ce5760405162461bcd60e51b815260206004820152602b60248201527f455243313135353a2062616c616e636520717565727920666f7220746865207a60448201526a65726f206164647265737360a81b60648201526084015b60405180910390fd5b5060009081526001602090815260408083206001600160a01b03949094168352929052205490565b60006001600160e01b03198216636cdb3d1360e11b148061032757506001600160e01b031982166303a24d0760e21b145b8061034257506301ffc9a760e01b6001600160e01b03198316145b92915050565b6000546001600160a01b031633146103725760405162461bcd60e51b81526004016102c590611622565b61037b8161083c565b50565b60606003805461038d90611657565b80601f01602080910402602001604051908101604052809291908181526020018280546103b990611657565b80156104065780601f106103db57610100808354040283529160200191610406565b820191906000526020600020905b8154815290600101906020018083116103e957829003601f168201915b50505050509050919050565b6000546001600160a01b031633148061043f57503360009081526004602052604090205460ff1615156001145b6104955760405162461bcd60e51b815260206004820152602160248201527f4d696e7461626c653a2063616c6c6572206973206e6f74206d696e7461626c656044820152602160f81b60648201526084016102c5565b6104bd838383604051806040016040528060048152602001630307830360e41b81525061084f565b505050565b6001600160a01b0385163314806104de57506104de85336101f6565b6105455760405162461bcd60e51b815260206004820152603260248201527f455243313135353a207472616e736665722063616c6c6572206973206e6f74206044820152711bdddb995c881b9bdc88185c1c1c9bdd995960721b60648201526084016102c5565b6105528585858585610965565b5050505050565b606081518351146105be5760405162461bcd60e51b815260206004820152602960248201527f455243313135353a206163636f756e747320616e6420696473206c656e677468604482015268040dad2e6dac2e8c6d60bb1b60648201526084016102c5565b6000835167ffffffffffffffff8111156105da576105da61111d565b604051908082528060200260200182016040528015610603578160200160208202803683370190505b50905060005b845181101561067b5761064e85828151811061062757610627611691565b602002602001015185838151811061064157610641611691565b602002602001015161025d565b82828151811061066057610660611691565b6020908102919091010152610674816116bd565b9050610609565b509392505050565b6000546001600160a01b031633146106ad5760405162461bcd60e51b81526004016102c590611622565b6106b76000610b45565b565b6106c4338383610b95565b5050565b6001600160a01b0385163314806106e457506106e485336101f6565b6107425760405162461bcd60e51b815260206004820152602960248201527f455243313135353a2063616c6c6572206973206e6f74206f776e6572206e6f7260448201526808185c1c1c9bdd995960ba1b60648201526084016102c5565b6105528585858585610c75565b6000546001600160a01b031633146107795760405162461bcd60e51b81526004016102c590611622565b6001600160a01b0381166107de5760405162461bcd60e51b815260206004820152602660248201527f4f776e61626c653a206e6577206f776e657220697320746865207a65726f206160448201526564647265737360d01b60648201526084016102c5565b61037b81610b45565b6000546001600160a01b031633146108115760405162461bcd60e51b81526004016102c590611622565b6001600160a01b03919091166000908152600460205260409020805460ff1916911515919091179055565b80516106c4906003906020840190611004565b6001600160a01b0384166108af5760405162461bcd60e51b815260206004820152602160248201527f455243313135353a206d696e7420746f20746865207a65726f206164647265736044820152607360f81b60648201526084016102c5565b3360006108bb85610da3565b905060006108c885610da3565b905060008681526001602090815260408083206001600160a01b038b168452909152812080548792906108fc9084906116d6565b909155505060408051878152602081018790526001600160a01b03808a1692600092918716917fc3d58168c5ae7397731d063d5bbf3d657854427343f4c083240f7aacaa2d0f62910160405180910390a461095c83600089898989610dee565b50505050505050565b81518351146109c75760405162461bcd60e51b815260206004820152602860248201527f455243313135353a2069647320616e6420616d6f756e7473206c656e677468206044820152670dad2e6dac2e8c6d60c31b60648201526084016102c5565b6001600160a01b0384166109ed5760405162461bcd60e51b81526004016102c5906116ee565b3360005b8451811015610ad7576000858281518110610a0e57610a0e611691565b602002602001015190506000858381518110610a2c57610a2c611691565b60209081029190910181015160008481526001835260408082206001600160a01b038e168352909352919091205490915081811015610a7d5760405162461bcd60e51b81526004016102c590611733565b60008381526001602090815260408083206001600160a01b038e8116855292528083208585039055908b16825281208054849290610abc9084906116d6565b9250508190555050505080610ad0906116bd565b90506109f1565b50846001600160a01b0316866001600160a01b0316826001600160a01b03167f4a39dc06d4c0dbc64b70af90fd698a233a518aa5d07e595d983b8c0526c8f7fb8787604051610b2792919061177d565b60405180910390a4610b3d818787878787610f49565b505050505050565b600080546001600160a01b038381166001600160a01b0319831681178455604051919092169283917f8be0079c531659141344cd1fd0a4f28419497f9722a3daafe3b4186f6b6457e09190a35050565b816001600160a01b0316836001600160a01b031603610c085760405162461bcd60e51b815260206004820152602960248201527f455243313135353a2073657474696e6720617070726f76616c20737461747573604482015268103337b91039b2b63360b91b60648201526084016102c5565b6001600160a01b03838116600081815260026020908152604080832094871680845294825291829020805460ff191686151590811790915591519182527f17307eab39ab6107e8899845ad3d59bd9653f200f220920489ca2b5937696c31910160405180910390a3505050565b6001600160a01b038416610c9b5760405162461bcd60e51b81526004016102c5906116ee565b336000610ca785610da3565b90506000610cb485610da3565b905060008681526001602090815260408083206001600160a01b038c16845290915290205485811015610cf95760405162461bcd60e51b81526004016102c590611733565b60008781526001602090815260408083206001600160a01b038d8116855292528083208985039055908a16825281208054889290610d389084906116d6565b909155505060408051888152602081018890526001600160a01b03808b16928c821692918816917fc3d58168c5ae7397731d063d5bbf3d657854427343f4c083240f7aacaa2d0f62910160405180910390a4610d98848a8a8a8a8a610dee565b505050505050505050565b60408051600180825281830190925260609160009190602080830190803683370190505090508281600081518110610ddd57610ddd611691565b602090810291909101015292915050565b6001600160a01b0384163b15610b3d5760405163f23a6e6160e01b81526001600160a01b0385169063f23a6e6190610e3290899089908890889088906004016117ab565b6020604051808303816000875af1925050508015610e6d575060408051601f3d908101601f19168201909252610e6a918101906117f0565b60015b610f1957610e7961180d565b806308c379a003610eb25750610e8d611829565b80610e985750610eb4565b8060405162461bcd60e51b81526004016102c59190611275565b505b60405162461bcd60e51b815260206004820152603460248201527f455243313135353a207472616e7366657220746f206e6f6e20455243313135356044820152732932b1b2b4bb32b91034b6b83632b6b2b73a32b960611b60648201526084016102c5565b6001600160e01b0319811663f23a6e6160e01b1461095c5760405162461bcd60e51b81526004016102c5906118b3565b6001600160a01b0384163b15610b3d5760405163bc197c8160e01b81526001600160a01b0385169063bc197c8190610f8d90899089908890889088906004016118fb565b6020604051808303816000875af1925050508015610fc8575060408051601f3d908101601f19168201909252610fc5918101906117f0565b60015b610fd457610e7961180d565b6001600160e01b0319811663bc197c8160e01b1461095c5760405162461bcd60e51b81526004016102c5906118b3565b82805461101090611657565b90600052602060002090601f0160209004810192826110325760008555611078565b82601f1061104b57805160ff1916838001178555611078565b82800160010185558215611078579182015b8281111561107857825182559160200191906001019061105d565b50611084929150611088565b5090565b5b808211156110845760008155600101611089565b80356001600160a01b03811681146110b457600080fd5b919050565b600080604083850312156110cc57600080fd5b6110d58361109d565b946020939093013593505050565b6001600160e01b03198116811461037b57600080fd5b60006020828403121561110b57600080fd5b8135611116816110e3565b9392505050565b634e487b7160e01b600052604160045260246000fd5b601f8201601f1916810167ffffffffffffffff811182821017156111595761115961111d565b6040525050565b600067ffffffffffffffff83111561117a5761117a61111d565b604051611191601f8501601f191660200182611133565b8091508381528484840111156111a657600080fd5b83836020830137600060208583010152509392505050565b6000602082840312156111d057600080fd5b813567ffffffffffffffff8111156111e757600080fd5b8201601f810184136111f857600080fd5b61120784823560208401611160565b949350505050565b60006020828403121561122157600080fd5b5035919050565b6000815180845260005b8181101561124e57602081850181015186830182015201611232565b81811115611260576000602083870101525b50601f01601f19169290920160200192915050565b6020815260006111166020830184611228565b60008060006060848603121561129d57600080fd5b6112a68461109d565b95602085013595506040909401359392505050565b600067ffffffffffffffff8211156112d5576112d561111d565b5060051b60200190565b600082601f8301126112f057600080fd5b813560206112fd826112bb565b60405161130a8282611133565b83815260059390931b850182019282810191508684111561132a57600080fd5b8286015b84811015611345578035835291830191830161132e565b509695505050505050565b600082601f83011261136157600080fd5b61111683833560208501611160565b600080600080600060a0868803121561138857600080fd5b6113918661109d565b945061139f6020870161109d565b9350604086013567ffffffffffffffff808211156113bc57600080fd5b6113c889838a016112df565b945060608801359150808211156113de57600080fd5b6113ea89838a016112df565b9350608088013591508082111561140057600080fd5b5061140d88828901611350565b9150509295509295909350565b6000806040838503121561142d57600080fd5b823567ffffffffffffffff8082111561144557600080fd5b818501915085601f83011261145957600080fd5b81356020611466826112bb565b6040516114738282611133565b83815260059390931b850182019282810191508984111561149357600080fd5b948201945b838610156114b8576114a98661109d565b82529482019490820190611498565b965050860135925050808211156114ce57600080fd5b506114db858286016112df565b9150509250929050565b600081518084526020808501945080840160005b83811015611515578151875295820195908201906001016114f9565b509495945050505050565b60208152600061111660208301846114e5565b6000806040838503121561154657600080fd5b61154f8361109d565b91506020830135801515811461156457600080fd5b809150509250929050565b6000806040838503121561158257600080fd5b61158b8361109d565b91506115996020840161109d565b90509250929050565b600080600080600060a086880312156115ba57600080fd5b6115c38661109d565b94506115d16020870161109d565b93506040860135925060608601359150608086013567ffffffffffffffff8111156115fb57600080fd5b61140d88828901611350565b60006020828403121561161957600080fd5b6111168261109d565b6020808252818101527f4f776e61626c653a2063616c6c6572206973206e6f7420746865206f776e6572604082015260600190565b600181811c9082168061166b57607f821691505b60208210810361168b57634e487b7160e01b600052602260045260246000fd5b50919050565b634e487b7160e01b600052603260045260246000fd5b634e487b7160e01b600052601160045260246000fd5b6000600182016116cf576116cf6116a7565b5060010190565b600082198211156116e9576116e96116a7565b500190565b60208082526025908201527f455243313135353a207472616e7366657220746f20746865207a65726f206164604082015264647265737360d81b606082015260800190565b6020808252602a908201527f455243313135353a20696e73756666696369656e742062616c616e636520666f60408201526939103a3930b739b332b960b11b606082015260800190565b60408152600061179060408301856114e5565b82810360208401526117a281856114e5565b95945050505050565b6001600160a01b03868116825285166020820152604081018490526060810183905260a0608082018190526000906117e590830184611228565b979650505050505050565b60006020828403121561180257600080fd5b8151611116816110e3565b600060033d11156118265760046000803e5060005160e01c5b90565b600060443d10156118375790565b6040516003193d81016004833e81513d67ffffffffffffffff816024840111818411171561186757505050505090565b828501915081518181111561187f5750505050505090565b843d87010160208285010111156118995750505050505090565b6118a860208286010187611133565b509095945050505050565b60208082526028908201527f455243313135353a204552433131353552656365697665722072656a656374656040820152676420746f6b656e7360c01b606082015260800190565b6001600160a01b0386811682528516602082015260a060408201819052600090611927908301866114e5565b828103606084015261193981866114e5565b9050828103608084015261194d8185611228565b9897505050505050505056fea2646970667358221220256ad4fc4ad689cc089f4aaacc4fe16684dcde0da2a5325313abddc76de8cd3264736f6c634300080e0033",
  "immutableReferences": {},
  "source": "// SPDX-License-Identifier: MIT\r\npragma solidity ^0.8.0;\r\n\r\nimport \"@openzeppelin/contracts/token/ERC1155/ERC1155.sol\";\r\nimport \"@openzeppelin/contracts/access/Ownable.sol\";\r\n\r\ncontract DaopioneerPhys is Ownable, ERC1155 {\r\n\r\n  constructor(string memory _uri) ERC1155(_uri){\r\n  }\r\n\r\n  mapping(address => bool) private mintables;\r\n\r\n  modifier onlyMintable() {\r\n    require(_msgSender() == owner() || mintables[_msgSender()] == true, \"Mintable: caller is not mintable!\");\r\n    _;\r\n  }\r\n\r\n  function setMintable (address who, bool flag) public onlyOwner {\r\n    mintables[who] = flag;\r\n  }\r\n\r\n  function setURI(string memory newuri) public onlyOwner {\r\n    _setURI(newuri);\r\n  }\r\n\r\n  function mint(\r\n    address to,\r\n    uint256 id,\r\n    uint256 amount\r\n  ) public onlyMintable {\r\n    _mint(to, id, amount, \"0x00\");\r\n  }\r\n}",
  "sourcePath": "D:\\Working\\Freelancing\\7.TFT\\Project\\TFT-blockchain\\blockchain\\contracts\\DaopioneerPhys.sol",
  "compiler": {
    "name": "solc",
    "version": "0.8.14+commit.80d49f37.Emscripten.clang"
  },
  "schemaVersion": "3.4.4",
  "updatedAt": "2022-06-04T19:43:35.068Z",
  "devdoc": {
    "kind": "dev",
    "methods": {
      "balanceOf(address,uint256)": {
        "details": "See {IERC1155-balanceOf}. Requirements: - `account` cannot be the zero address."
      },
      "balanceOfBatch(address[],uint256[])": {
        "details": "See {IERC1155-balanceOfBatch}. Requirements: - `accounts` and `ids` must have the same length."
      },
      "isApprovedForAll(address,address)": {
        "details": "See {IERC1155-isApprovedForAll}."
      },
      "owner()": {
        "details": "Returns the address of the current owner."
      },
      "renounceOwnership()": {
        "details": "Leaves the contract without owner. It will not be possible to call `onlyOwner` functions anymore. Can only be called by the current owner. NOTE: Renouncing ownership will leave the contract without an owner, thereby removing any functionality that is only available to the owner."
      },
      "safeBatchTransferFrom(address,address,uint256[],uint256[],bytes)": {
        "details": "See {IERC1155-safeBatchTransferFrom}."
      },
      "safeTransferFrom(address,address,uint256,uint256,bytes)": {
        "details": "See {IERC1155-safeTransferFrom}."
      },
      "setApprovalForAll(address,bool)": {
        "details": "See {IERC1155-setApprovalForAll}."
      },
      "supportsInterface(bytes4)": {
        "details": "See {IERC165-supportsInterface}."
      },
      "transferOwnership(address)": {
        "details": "Transfers ownership of the contract to a new account (`newOwner`). Can only be called by the current owner."
      },
      "uri(uint256)": {
        "details": "See {IERC1155MetadataURI-uri}. This implementation returns the same URI for *all* token types. It relies on the token type ID substitution mechanism https://eips.ethereum.org/EIPS/eip-1155#metadata[defined in the EIP]. Clients calling this function must replace the `\\{id\\}` substring with the actual token type ID."
      }
    },
    "version": 1
  },
  "userdoc": {
    "kind": "user",
    "methods": {},
    "version": 1
  }
}