{
  "contractName": "TFTAirDrop",
  "abi": [
    {
      "inputs": [],
      "stateMutability": "nonpayable",
      "type": "constructor"
    },
    {
      "anonymous": false,
      "inputs": [
        {
          "indexed": true,
          "internalType": "address",
          "name": "previousOwner",
          "type": "address"
        },
        {
          "indexed": true,
          "internalType": "address",
          "name": "newOwner",
          "type": "address"
        }
      ],
      "name": "OwnershipTransferred",
      "type": "event"
    },
    {
      "inputs": [],
      "name": "maxUserCount",
      "outputs": [
        {
          "internalType": "uint256",
          "name": "",
          "type": "uint256"
        }
      ],
      "stateMutability": "view",
      "type": "function",
      "constant": true
    },
    {
      "inputs": [],
      "name": "owner",
      "outputs": [
        {
          "internalType": "address",
          "name": "",
          "type": "address"
        }
      ],
      "stateMutability": "view",
      "type": "function",
      "constant": true
    },
    {
      "inputs": [],
      "name": "renounceOwnership",
      "outputs": [],
      "stateMutability": "nonpayable",
      "type": "function"
    },
    {
      "inputs": [
        {
          "internalType": "address",
          "name": "newOwner",
          "type": "address"
        }
      ],
      "name": "transferOwnership",
      "outputs": [],
      "stateMutability": "nonpayable",
      "type": "function"
    },
    {
      "inputs": [],
      "name": "userCount",
      "outputs": [
        {
          "internalType": "uint256",
          "name": "",
          "type": "uint256"
        }
      ],
      "stateMutability": "view",
      "type": "function",
      "constant": true
    },
    {
      "inputs": [
        {
          "internalType": "address",
          "name": "",
          "type": "address"
        }
      ],
      "name": "userList",
      "outputs": [
        {
          "internalType": "bool",
          "name": "",
          "type": "bool"
        }
      ],
      "stateMutability": "view",
      "type": "function",
      "constant": true
    },
    {
      "inputs": [
        {
          "internalType": "uint256",
          "name": "_userCount",
          "type": "uint256"
        }
      ],
      "name": "setMaxUserCount",
      "outputs": [],
      "stateMutability": "nonpayable",
      "type": "function"
    },
    {
      "inputs": [],
      "name": "register",
      "outputs": [],
      "stateMutability": "nonpayable",
      "type": "function"
    }
  ],
  "bytecode": "0x60806040526103e860025534801561001657600080fd5b5061002033610025565b610075565b600080546001600160a01b038381166001600160a01b0319831681178455604051919092169283917f8be0079c531659141344cd1fd0a4f28419497f9722a3daafe3b4186f6b6457e09190a35050565b61045e806100846000396000f3fe608060405234801561001057600080fd5b50600436106100885760003560e01c8063715018a61161005b578063715018a6146100ef5780638da5cb5b146100f75780639b7e8d8214610112578063f2fde38b1461012557600080fd5b806307973ccf1461008d5780630b2e081a146100a95780631aa3a008146100b25780631b4e7bd2146100bc575b600080fd5b61009660015481565b6040519081526020015b60405180910390f35b61009660025481565b6100ba610138565b005b6100df6100ca366004610384565b60036020526000908152604090205460ff1681565b60405190151581526020016100a0565b6100ba610234565b6000546040516001600160a01b0390911681526020016100a0565b6100ba6101203660046103b4565b61026a565b6100ba610133366004610384565b610299565b3360009081526003602052604090205460ff1615156001146101a15760405162461bcd60e51b815260206004820152601860248201527f416c72656164792072656769737465726564207573657221000000000000000060448201526064015b60405180910390fd5b600254600180546101b1916103cd565b11156101ff5760405162461bcd60e51b815260206004820152601e60248201527f4d6178696d756d207573657220636f756e7420657863636565646564652100006044820152606401610198565b336000908152600360205260408120805460ff1916600190811790915580549091829161022d9083906103cd565b9091555050565b6000546001600160a01b0316331461025e5760405162461bcd60e51b8152600401610198906103f3565b6102686000610334565b565b6000546001600160a01b031633146102945760405162461bcd60e51b8152600401610198906103f3565b600255565b6000546001600160a01b031633146102c35760405162461bcd60e51b8152600401610198906103f3565b6001600160a01b0381166103285760405162461bcd60e51b815260206004820152602660248201527f4f776e61626c653a206e6577206f776e657220697320746865207a65726f206160448201526564647265737360d01b6064820152608401610198565b61033181610334565b50565b600080546001600160a01b038381166001600160a01b0319831681178455604051919092169283917f8be0079c531659141344cd1fd0a4f28419497f9722a3daafe3b4186f6b6457e09190a35050565b60006020828403121561039657600080fd5b81356001600160a01b03811681146103ad57600080fd5b9392505050565b6000602082840312156103c657600080fd5b5035919050565b600082198211156103ee57634e487b7160e01b600052601160045260246000fd5b500190565b6020808252818101527f4f776e61626c653a2063616c6c6572206973206e6f7420746865206f776e657260408201526060019056fea26469706673582212202c0fc2d60ee82f313c3265119291543c4dcbda6daf34e2a977f34d1a246a7a0564736f6c634300080b0033",
  "immutableReferences": {},
  "source": "//SPDX-License-Identifier: MIT\r\npragma solidity ^0.8.11;\r\n\r\nimport \"@openzeppelin/contracts/access/Ownable.sol\";\r\n\r\ncontract TFTAirDrop is Ownable {\r\n  uint public userCount;\r\n  uint public maxUserCount = 1000;\r\n  mapping(address => bool) public userList;\r\n\r\n  constructor() {}\r\n\r\n  function setMaxUserCount(uint _userCount) external onlyOwner {\r\n    maxUserCount = _userCount;\r\n  }\r\n\r\n  function register() external {\r\n    require(userList[msg.sender] == true, \"Already registered user!\");\r\n    require(userCount + 1 <= maxUserCount, \"Maximum user count excceedede!\");\r\n    userList[msg.sender] = true;\r\n    userCount += 1;\r\n  }\r\n}",
  "sourcePath": "D:\\Working\\Freelancing\\7.TFT\\Project\\TFTBackend\\blockchain\\contracts\\TFT-airdrop.sol",
  "compiler": {
    "name": "solc",
    "version": "0.8.11+commit.d7f03943.Emscripten.clang"
  },
  "schemaVersion": "3.4.4",
  "updatedAt": "2022-03-27T19:32:22.553Z",
  "networkType": "ethereum",
  "devdoc": {
    "kind": "dev",
    "methods": {
      "owner()": {
        "details": "Returns the address of the current owner."
      },
      "renounceOwnership()": {
        "details": "Leaves the contract without owner. It will not be possible to call `onlyOwner` functions anymore. Can only be called by the current owner. NOTE: Renouncing ownership will leave the contract without an owner, thereby removing any functionality that is only available to the owner."
      },
      "transferOwnership(address)": {
        "details": "Transfers ownership of the contract to a new account (`newOwner`). Can only be called by the current owner."
      }
    },
    "version": 1
  },
  "userdoc": {
    "kind": "user",
    "methods": {},
    "version": 1
  }
}